{
  "contractName": "Goods",
  "abi": [
    {
      "constant": false,
      "inputs": [],
      "name": "getHello",
      "outputs": [
        {
          "name": "",
          "type": "string"
        }
      ],
      "payable": false,
      "stateMutability": "nonpayable",
      "type": "function"
    }
  ],
  "bytecode": "0x608060405234801561001057600080fd5b5061013f806100206000396000f300608060405260043610610041576000357c0100000000000000000000000000000000000000000000000000000000900463ffffffff1680638da9b77214610046575b600080fd5b34801561005257600080fd5b5061005b6100d6565b6040518080602001828103825283818151815260200191508051906020019080838360005b8381101561009b578082015181840152602081019050610080565b50505050905090810190601f1680156100c85780820380516001836020036101000a031916815260200191505b509250505060405180910390f35b60606040805190810160405280601081526020017f48656c6c6f2066726f6d20476f6f6473000000000000000000000000000000008152509050905600a165627a7a72305820a74a4ab20abc508596f0c9042aa3a75dedb46451a1b0a4d59f58df76f599e75c0029",
  "source": "pragma solidity ^0.4.17;\n\ncontract Goods {\n\tfunction getHello() public returns(string){\n\t\treturn \"Hello from Goods\";\n\t}\n}",
  "sourcePath": "/Users/srimathih/blockchain_101/dapp/contracts/Goods.sol",
  "compiler": {
    "name": "solc",
    "version": "0.4.24+commit.e67f0147.Emscripten.clang"
  },
  "schemaVersion": "2.0.0",
  "updatedAt": "2018-11-14T05:38:21.904Z"
}