{
  "contractName": "Goods",
  "abi": [
    {
      "anonymous": false,
      "inputs": [
        {
          "indexed": false,
          "name": "sender",
          "type": "address"
        },
        {
          "indexed": false,
          "name": "uuid",
          "type": "string"
        },
        {
          "indexed": false,
          "name": "manufacturer",
          "type": "string"
        }
      ],
      "name": "BatchCreate",
      "type": "event"
    },
    {
      "anonymous": false,
      "inputs": [
        {
          "indexed": false,
          "name": "sender",
          "type": "address"
        },
        {
          "indexed": false,
          "name": "uuid",
          "type": "string"
        },
        {
          "indexed": false,
          "name": "message",
          "type": "string"
        }
      ],
      "name": "BatchCreateError",
      "type": "event"
    },
    {
      "anonymous": false,
      "inputs": [
        {
          "indexed": false,
          "name": "sender",
          "type": "address"
        },
        {
          "indexed": false,
          "name": "receiver",
          "type": "address"
        },
        {
          "indexed": false,
          "name": "uuid",
          "type": "string"
        }
      ],
      "name": "BatchTransfer",
      "type": "event"
    },
    {
      "anonymous": false,
      "inputs": [
        {
          "indexed": false,
          "name": "sender",
          "type": "address"
        },
        {
          "indexed": false,
          "name": "receiver",
          "type": "address"
        },
        {
          "indexed": false,
          "name": "uuid",
          "type": "string"
        },
        {
          "indexed": false,
          "name": "message",
          "type": "string"
        }
      ],
      "name": "BatchTransferError",
      "type": "event"
    },
    {
      "constant": false,
      "inputs": [],
      "name": "getHello",
      "outputs": [
        {
          "name": "",
          "type": "string"
        }
      ],
      "payable": false,
      "stateMutability": "nonpayable",
      "type": "function"
    },
    {
      "constant": false,
      "inputs": [
        {
          "name": "name",
          "type": "string"
        },
        {
          "name": "uuid",
          "type": "string"
        },
        {
          "name": "manufacturerName",
          "type": "string"
        }
      ],
      "name": "createBatch",
      "outputs": [],
      "payable": false,
      "stateMutability": "nonpayable",
      "type": "function"
    },
    {
      "constant": true,
      "inputs": [
        {
          "name": "uuid",
          "type": "string"
        }
      ],
      "name": "getBatchById",
      "outputs": [
        {
          "name": "",
          "type": "string"
        },
        {
          "name": "",
          "type": "string"
        }
      ],
      "payable": false,
      "stateMutability": "view",
      "type": "function"
    },
    {
      "constant": false,
      "inputs": [
        {
          "name": "to",
          "type": "address"
        },
        {
          "name": "uuid",
          "type": "string"
        }
      ],
      "name": "transferBatch",
      "outputs": [],
      "payable": false,
      "stateMutability": "nonpayable",
      "type": "function"
    },
    {
      "constant": true,
      "inputs": [
        {
          "name": "owner",
          "type": "address"
        },
        {
          "name": "uuid",
          "type": "string"
        }
      ],
      "name": "isCurrentOwnerOf",
      "outputs": [
        {
          "name": "",
          "type": "bool"
        }
      ],
      "payable": false,
      "stateMutability": "view",
      "type": "function"
    }
  ],
  "bytecode": "0x608060405234801561001057600080fd5b50611359806100206000396000f30060806040526004361061006d576000357c0100000000000000000000000000000000000000000000000000000000900463ffffffff168063114b6f7b14610072578063390690a8146100fb57806375b021481461019c5780638da9b772146102ea578063a6cfb6c91461037a575b600080fd5b34801561007e57600080fd5b506100f9600480360381019080803573ffffffffffffffffffffffffffffffffffffffff169060200190929190803590602001908201803590602001908080601f016020809104026020016040519081016040528093929190818152602001838380828437820191505050505050919291929050505061046f565b005b34801561010757600080fd5b50610182600480360381019080803573ffffffffffffffffffffffffffffffffffffffff169060200190929190803590602001908201803590602001908080601f0160208091040260200160405190810160405280939291908181526020018383808284378201915050505050509192919290505050610abb565b604051808215151515815260200191505060405180910390f35b3480156101a857600080fd5b50610203600480360381019080803590602001908201803590602001908080601f0160208091040260200160405190810160405280939291908181526020018383808284378201915050505050509192919290505050610b8c565b604051808060200180602001838103835285818151815260200191508051906020019080838360005b8381101561024757808201518184015260208101905061022c565b50505050905090810190601f1680156102745780820380516001836020036101000a031916815260200191505b50838103825284818151815260200191508051906020019080838360005b838110156102ad578082015181840152602081019050610292565b50505050905090810190601f1680156102da5780820380516001836020036101000a031916815260200191505b5094505050505060405180910390f35b3480156102f657600080fd5b506102ff610dac565b6040518080602001828103825283818151815260200191508051906020019080838360005b8381101561033f578082015181840152602081019050610324565b50505050905090810190601f16801561036c5780820380516001836020036101000a031916815260200191505b509250505060405180910390f35b34801561038657600080fd5b5061046d600480360381019080803590602001908201803590602001908080601f0160208091040260200160405190810160405280939291908181526020018383808284378201915050505050509192919290803590602001908201803590602001908080601f0160208091040260200160405190810160405280939291908181526020018383808284378201915050505050509192919290803590602001908201803590602001908080601f0160208091040260200160405190810160405280939291908181526020018383808284378201915050505050509192919290505050610de9565b005b6000816040518082805190602001908083835b6020831015156104a75780518252602082019150602081019050602083039250610482565b6001836020036101000a038019825116818451168082178552505050505050905001915050908152602001604051809103902060020160009054906101000a900460ff161515610633577f6781508046ca0eff0d16aa1c7a7c9b7dc1d49cbfcfb828ef0a3b4bdb0b79abbe338383604051808473ffffffffffffffffffffffffffffffffffffffff1673ffffffffffffffffffffffffffffffffffffffff1681526020018373ffffffffffffffffffffffffffffffffffffffff1673ffffffffffffffffffffffffffffffffffffffff1681526020018060200180602001838103835284818151815260200191508051906020019080838360005b838110156105bd5780820151818401526020810190506105a2565b50505050905090810190601f1680156105ea5780820380516001836020036101000a031916815260200191505b508381038252601e8152602001807f4e6f2062617463682077697468207468697320555549442065786973747300008152506020019550505050505060405180910390a1610ab7565b600160003373ffffffffffffffffffffffffffffffffffffffff1673ffffffffffffffffffffffffffffffffffffffff168152602001908152602001600020816040518082805190602001908083835b6020831015156106a85780518252602082019150602081019050602083039250610683565b6001836020036101000a038019825116818451168082178552505050505050905001915050908152602001604051809103902060009054906101000a900460ff161515610831577f6781508046ca0eff0d16aa1c7a7c9b7dc1d49cbfcfb828ef0a3b4bdb0b79abbe338383604051808473ffffffffffffffffffffffffffffffffffffffff1673ffffffffffffffffffffffffffffffffffffffff1681526020018373ffffffffffffffffffffffffffffffffffffffff1673ffffffffffffffffffffffffffffffffffffffff1681526020018060200180602001838103835284818151815260200191508051906020019080838360005b838110156107bb5780820151818401526020810190506107a0565b50505050905090810190601f1680156107e85780820380516001836020036101000a031916815260200191505b508381038252601f8152602001807f53656e64657220646f6573206e6f74206f776e20746869732062617463682e008152506020019550505050505060405180910390a1610ab7565b6000600160003373ffffffffffffffffffffffffffffffffffffffff1673ffffffffffffffffffffffffffffffffffffffff168152602001908152602001600020826040518082805190602001908083835b6020831015156108a85780518252602082019150602081019050602083039250610883565b6001836020036101000a038019825116818451168082178552505050505050905001915050908152602001604051809103902060006101000a81548160ff02191690831515021790555060018060008473ffffffffffffffffffffffffffffffffffffffff1673ffffffffffffffffffffffffffffffffffffffff168152602001908152602001600020826040518082805190602001908083835b6020831015156109685780518252602082019150602081019050602083039250610943565b6001836020036101000a038019825116818451168082178552505050505050905001915050908152602001604051809103902060006101000a81548160ff0219169083151502179055507fe5291a9e585d9a1aac1fe77a3ddbe95dac8dd32c8ea2943139418c63f96a7fb6338383604051808473ffffffffffffffffffffffffffffffffffffffff1673ffffffffffffffffffffffffffffffffffffffff1681526020018373ffffffffffffffffffffffffffffffffffffffff1673ffffffffffffffffffffffffffffffffffffffff16815260200180602001828103825283818151815260200191508051906020019080838360005b83811015610a7a578082015181840152602081019050610a5f565b50505050905090810190601f168015610aa75780820380516001836020036101000a031916815260200191505b5094505050505060405180910390a15b5050565b6000600160008473ffffffffffffffffffffffffffffffffffffffff1673ffffffffffffffffffffffffffffffffffffffff168152602001908152602001600020826040518082805190602001908083835b602083101515610b325780518252602082019150602081019050602083039250610b0d565b6001836020036101000a038019825116818451168082178552505050505050905001915050908152602001604051809103902060009054906101000a900460ff1615610b815760019050610b86565b600090505b92915050565b6060806000836040518082805190602001908083835b602083101515610bc75780518252602082019150602081019050602083039250610ba2565b6001836020036101000a03801982511681845116808217855250505050505090500191505090815260200160405180910390206000016000846040518082805190602001908083835b602083101515610c355780518252602082019150602081019050602083039250610c10565b6001836020036101000a0380198251168184511680821785525050505050509050019150509081526020016040518091039020600101818054600181600116156101000203166002900480601f016020809104026020016040519081016040528092919081815260200182805460018160011615610100020316600290048015610d005780601f10610cd557610100808354040283529160200191610d00565b820191906000526020600020905b815481529060010190602001808311610ce357829003601f168201915b50505050509150808054600181600116156101000203166002900480601f016020809104026020016040519081016040528092919081815260200182805460018160011615610100020316600290048015610d9c5780601f10610d7157610100808354040283529160200191610d9c565b820191906000526020600020905b815481529060010190602001808311610d7f57829003601f168201915b5050505050905091509150915091565b60606040805190810160405280601081526020017f48656c6c6f2066726f6d20476f6f647300000000000000000000000000000000815250905090565b6000826040518082805190602001908083835b602083101515610e215780518252602082019150602081019050602083039250610dfc565b6001836020036101000a038019825116818451168082178552505050505050905001915050908152602001604051809103902060020160009054906101000a900460ff1615610f9e577fd25d1649092d9c10a66dbb21b446c5e442d0e906a795a5044494a68d810682153383604051808373ffffffffffffffffffffffffffffffffffffffff1673ffffffffffffffffffffffffffffffffffffffff1681526020018060200180602001838103835284818151815260200191508051906020019080838360005b83811015610f03578082015181840152602081019050610ee8565b50505050905090810190601f168015610f305780820380516001836020036101000a031916815260200191505b50838103825260258152602001807f426174636820776974682074686973205555494420616c72656164792063726581526020017f617465642e00000000000000000000000000000000000000000000000000000081525060400194505050505060405180910390a1611283565b606060405190810160405280848152602001828152602001600115158152506000836040518082805190602001908083835b602083101515610ff55780518252602082019150602081019050602083039250610fd0565b6001836020036101000a03801982511681845116808217855250505050505090500191505090815260200160405180910390206000820151816000019080519060200190611044929190611288565b506020820151816001019080519060200190611061929190611288565b5060408201518160020160006101000a81548160ff02191690831515021790555090505060018060003373ffffffffffffffffffffffffffffffffffffffff1673ffffffffffffffffffffffffffffffffffffffff168152602001908152602001600020836040518082805190602001908083835b6020831015156110fb57805182526020820191506020810190506020830392506110d6565b6001836020036101000a038019825116818451168082178552505050505050905001915050908152602001604051809103902060006101000a81548160ff0219169083151502179055507f8657843818dcdc19d419ccc3f96e07dff9ceefb422728fc8459b0e69bdd0e615338383604051808473ffffffffffffffffffffffffffffffffffffffff1673ffffffffffffffffffffffffffffffffffffffff1681526020018060200180602001838103835285818151815260200191508051906020019080838360005b838110156111df5780820151818401526020810190506111c4565b50505050905090810190601f16801561120c5780820380516001836020036101000a031916815260200191505b50838103825284818151815260200191508051906020019080838360005b8381101561124557808201518184015260208101905061122a565b50505050905090810190601f1680156112725780820380516001836020036101000a031916815260200191505b509550505050505060405180910390a15b505050565b828054600181600116156101000203166002900490600052602060002090601f016020900481019282601f106112c957805160ff19168380011785556112f7565b828001600101855582156112f7579182015b828111156112f65782518255916020019190600101906112db565b5b5090506113049190611308565b5090565b61132a91905b8082111561132657600081600090555060010161130e565b5090565b905600a165627a7a72305820943fcd67b79b4c8de814490aa46124367fc4631df17bd1bcba9c4730177a112d0029",
  "source": "pragma solidity ^0.4.17;\n\ncontract Goods {\n    \n    function getHello() public returns(string) {\n\t\treturn \"Hello from Goods\";\n\t}\n\n    event BatchCreate(address sender, string uuid, string manufacturer);\n    event BatchCreateError(address sender, string uuid, string message);\n    event BatchTransfer(address sender, address receiver, string uuid);\n    event BatchTransferError(address sender, address receiver, string uuid, string message);\n\n    struct Batch {\n        string name;\n        string manufacturerName;\n        bool readyToShip; \n    }\n\n    mapping(string  => Batch) private batchStore;\n\n    mapping(address => mapping(string => bool)) private batchCurrentOwner;\n\n    function createBatch(string name, string uuid, string manufacturerName) {\n    if(batchStore[uuid].readyToShip) {\n            BatchCreateError(msg.sender, uuid, \"Batch with this UUID already created.\");\n            return;\n        }\n        batchStore[uuid] = Batch(name, manufacturerName, true);\n        batchCurrentOwner[msg.sender][uuid] = true;\n        BatchCreate(msg.sender, uuid, manufacturerName);\n    }\n\n    function getBatchById(string uuid) constant returns (string, string) {\n        return (batchStore[uuid].name, batchStore[uuid].manufacturerName);\n    }\n\n    function transferBatch(address to, string uuid) {\n        if(!batchStore[uuid].readyToShip) {\n            BatchTransferError(msg.sender, to, uuid, \"No batch with this UUID exists\");\n            return;\n        }\n        if(!batchCurrentOwner[msg.sender][uuid]) {\n            BatchTransferError(msg.sender, to, uuid, \"Sender does not own this batch.\");\n            return;\n        }\n        batchCurrentOwner[msg.sender][uuid] = false;\n        batchCurrentOwner[to][uuid] = true;\n        BatchTransfer(msg.sender, to, uuid);\n    }\n\n    function isCurrentOwnerOf(address owner, string uuid) constant returns (bool) {\n        if(batchCurrentOwner[owner][uuid]) {\n            return true;\n        }\n        return false;\n    }\n}",
  "sourcePath": "/Users/vigneshr/Projects/blockchain_101/dapp/contracts/Goods.sol",
  "compiler": {
    "name": "solc",
    "version": "0.4.24+commit.e67f0147.Emscripten.clang"
  },
  "schemaVersion": "2.0.0",
  "updatedAt": "2018-12-08T07:06:26.776Z"
}