{
  "contractName": "Goods",
  "abi": [
    {
      "anonymous": false,
      "inputs": [
        {
          "indexed": true,
          "name": "eventDesc",
          "type": "uint256"
        },
        {
          "indexed": false,
          "name": "batchId",
          "type": "string"
        },
        {
          "indexed": false,
          "name": "content",
          "type": "string"
        },
        {
          "indexed": true,
          "name": "doer",
          "type": "address"
        },
        {
          "indexed": false,
          "name": "timestamp",
          "type": "uint256"
        }
      ],
      "name": "BatchLog",
      "type": "event"
    },
    {
      "anonymous": false,
      "inputs": [
        {
          "indexed": false,
          "name": "sender",
          "type": "address"
        },
        {
          "indexed": false,
          "name": "uuid",
          "type": "string"
        },
        {
          "indexed": false,
          "name": "manufacturer",
          "type": "string"
        }
      ],
      "name": "BatchCreate",
      "type": "event"
    },
    {
      "anonymous": false,
      "inputs": [
        {
          "indexed": false,
          "name": "sender",
          "type": "address"
        },
        {
          "indexed": false,
          "name": "uuid",
          "type": "string"
        },
        {
          "indexed": false,
          "name": "message",
          "type": "string"
        }
      ],
      "name": "BatchCreateError",
      "type": "event"
    },
    {
      "anonymous": false,
      "inputs": [
        {
          "indexed": false,
          "name": "sender",
          "type": "address"
        },
        {
          "indexed": false,
          "name": "receiver",
          "type": "address"
        },
        {
          "indexed": false,
          "name": "uuid",
          "type": "string"
        }
      ],
      "name": "BatchTransfer",
      "type": "event"
    },
    {
      "anonymous": false,
      "inputs": [
        {
          "indexed": false,
          "name": "sender",
          "type": "address"
        },
        {
          "indexed": false,
          "name": "receiver",
          "type": "address"
        },
        {
          "indexed": false,
          "name": "uuid",
          "type": "string"
        },
        {
          "indexed": false,
          "name": "message",
          "type": "string"
        }
      ],
      "name": "BatchTransferError",
      "type": "event"
    },
    {
      "constant": false,
      "inputs": [],
      "name": "getHello",
      "outputs": [
        {
          "name": "",
          "type": "string"
        }
      ],
      "payable": false,
      "stateMutability": "nonpayable",
      "type": "function"
    },
    {
      "constant": false,
      "inputs": [
        {
          "name": "name",
          "type": "string"
        },
        {
          "name": "uuid",
          "type": "string"
        },
        {
          "name": "manufacturerName",
          "type": "string"
        }
      ],
      "name": "createBatch",
      "outputs": [],
      "payable": false,
      "stateMutability": "nonpayable",
      "type": "function"
    },
    {
      "constant": true,
      "inputs": [
        {
          "name": "uuid",
          "type": "string"
        }
      ],
      "name": "getBatchById",
      "outputs": [
        {
          "name": "",
          "type": "string"
        },
        {
          "name": "",
          "type": "string"
        }
      ],
      "payable": false,
      "stateMutability": "view",
      "type": "function"
    },
    {
      "constant": false,
      "inputs": [
        {
          "name": "to",
          "type": "address"
        },
        {
          "name": "uuid",
          "type": "string"
        }
      ],
      "name": "transferBatch",
      "outputs": [],
      "payable": false,
      "stateMutability": "nonpayable",
      "type": "function"
    },
    {
      "constant": true,
      "inputs": [
        {
          "name": "owner",
          "type": "address"
        },
        {
          "name": "uuid",
          "type": "string"
        }
      ],
      "name": "isCurrentOwnerOf",
      "outputs": [
        {
          "name": "",
          "type": "bool"
        }
      ],
      "payable": false,
      "stateMutability": "view",
      "type": "function"
    },
    {
      "constant": false,
      "inputs": [
        {
          "name": "x",
          "type": "address"
        }
      ],
      "name": "toString",
      "outputs": [
        {
          "name": "",
          "type": "string"
        }
      ],
      "payable": false,
      "stateMutability": "nonpayable",
      "type": "function"
    }
  ],
  "bytecode": "0x608060405234801561001057600080fd5b50611949806100206000396000f300608060405260043610610078576000357c0100000000000000000000000000000000000000000000000000000000900463ffffffff168063114b6f7b1461007d578063390690a81461010657806356ca623e146101a757806375b02148146102635780638da9b772146103b1578063a6cfb6c914610441575b600080fd5b34801561008957600080fd5b50610104600480360381019080803573ffffffffffffffffffffffffffffffffffffffff169060200190929190803590602001908201803590602001908080601f0160208091040260200160405190810160405280939291908181526020018383808284378201915050505050509192919290505050610536565b005b34801561011257600080fd5b5061018d600480360381019080803573ffffffffffffffffffffffffffffffffffffffff169060200190929190803590602001908201803590602001908080601f0160208091040260200160405190810160405280939291908181526020018383808284378201915050505050509192919290505050610cf8565b604051808215151515815260200191505060405180910390f35b3480156101b357600080fd5b506101e8600480360381019080803573ffffffffffffffffffffffffffffffffffffffff169060200190929190505050610dc9565b6040518080602001828103825283818151815260200191508051906020019080838360005b8381101561022857808201518184015260208101905061020d565b50505050905090810190601f1680156102555780820380516001836020036101000a031916815260200191505b509250505060405180910390f35b34801561026f57600080fd5b506102ca600480360381019080803590602001908201803590602001908080601f0160208091040260200160405190810160405280939291908181526020018383808284378201915050505050509192919290505050610eb5565b604051808060200180602001838103835285818151815260200191508051906020019080838360005b8381101561030e5780820151818401526020810190506102f3565b50505050905090810190601f16801561033b5780820380516001836020036101000a031916815260200191505b50838103825284818151815260200191508051906020019080838360005b83811015610374578082015181840152602081019050610359565b50505050905090810190601f1680156103a15780820380516001836020036101000a031916815260200191505b5094505050505060405180910390f35b3480156103bd57600080fd5b506103c66110d5565b6040518080602001828103825283818151815260200191508051906020019080838360005b838110156104065780820151818401526020810190506103eb565b50505050905090810190601f1680156104335780820380516001836020036101000a031916815260200191505b509250505060405180910390f35b34801561044d57600080fd5b50610534600480360381019080803590602001908201803590602001908080601f0160208091040260200160405190810160405280939291908181526020018383808284378201915050505050509192919290803590602001908201803590602001908080601f0160208091040260200160405190810160405280939291908181526020018383808284378201915050505050509192919290803590602001908201803590602001908080601f0160208091040260200160405190810160405280939291908181526020018383808284378201915050505050509192919290505050611112565b005b60606000826040518082805190602001908083835b602083101515610570578051825260208201915060208101905060208303925061054b565b6001836020036101000a038019825116818451168082178552505050505050905001915050908152602001604051809103902060020160009054906101000a900460ff1615156106fc577f6781508046ca0eff0d16aa1c7a7c9b7dc1d49cbfcfb828ef0a3b4bdb0b79abbe338484604051808473ffffffffffffffffffffffffffffffffffffffff1673ffffffffffffffffffffffffffffffffffffffff1681526020018373ffffffffffffffffffffffffffffffffffffffff1673ffffffffffffffffffffffffffffffffffffffff1681526020018060200180602001838103835284818151815260200191508051906020019080838360005b8381101561068657808201518184015260208101905061066b565b50505050905090810190601f1680156106b35780820380516001836020036101000a031916815260200191505b508381038252601e8152602001807f4e6f2062617463682077697468207468697320555549442065786973747300008152506020019550505050505060405180910390a1610cf3565b600160003373ffffffffffffffffffffffffffffffffffffffff1673ffffffffffffffffffffffffffffffffffffffff168152602001908152602001600020826040518082805190602001908083835b602083101515610771578051825260208201915060208101905060208303925061074c565b6001836020036101000a038019825116818451168082178552505050505050905001915050908152602001604051809103902060009054906101000a900460ff1615156108fa577f6781508046ca0eff0d16aa1c7a7c9b7dc1d49cbfcfb828ef0a3b4bdb0b79abbe338484604051808473ffffffffffffffffffffffffffffffffffffffff1673ffffffffffffffffffffffffffffffffffffffff1681526020018373ffffffffffffffffffffffffffffffffffffffff1673ffffffffffffffffffffffffffffffffffffffff1681526020018060200180602001838103835284818151815260200191508051906020019080838360005b83811015610884578082015181840152602081019050610869565b50505050905090810190601f1680156108b15780820380516001836020036101000a031916815260200191505b508381038252601f8152602001807f53656e64657220646f6573206e6f74206f776e20746869732062617463682e008152506020019550505050505060405180910390a1610cf3565b6000600160003373ffffffffffffffffffffffffffffffffffffffff1673ffffffffffffffffffffffffffffffffffffffff168152602001908152602001600020836040518082805190602001908083835b602083101515610971578051825260208201915060208101905060208303925061094c565b6001836020036101000a038019825116818451168082178552505050505050905001915050908152602001604051809103902060006101000a81548160ff02191690831515021790555060018060008573ffffffffffffffffffffffffffffffffffffffff1673ffffffffffffffffffffffffffffffffffffffff168152602001908152602001600020836040518082805190602001908083835b602083101515610a315780518252602082019150602081019050602083039250610a0c565b6001836020036101000a038019825116818451168082178552505050505050905001915050908152602001604051809103902060006101000a81548160ff0219169083151502179055507fe5291a9e585d9a1aac1fe77a3ddbe95dac8dd32c8ea2943139418c63f96a7fb6338484604051808473ffffffffffffffffffffffffffffffffffffffff1673ffffffffffffffffffffffffffffffffffffffff1681526020018373ffffffffffffffffffffffffffffffffffffffff1673ffffffffffffffffffffffffffffffffffffffff16815260200180602001828103825283818151815260200191508051906020019080838360005b83811015610b43578082015181840152602081019050610b28565b50505050905090810190601f168015610b705780820380516001836020036101000a031916815260200191505b5094505050505060405180910390a1610bc66040805190810160405280601681526020017f4261746368207472616e7366657272656420746f3a2000000000000000000000815250610bc185610dc9565b6116a7565b90503373ffffffffffffffffffffffffffffffffffffffff1660027f3cc1980eb5f0d359d6565d65710fe6d9d0ea58113d1d830053109ab2baa133b5848442604051808060200180602001848152602001838103835286818151815260200191508051906020019080838360005b83811015610c4f578082015181840152602081019050610c34565b50505050905090810190601f168015610c7c5780820380516001836020036101000a031916815260200191505b50838103825285818151815260200191508051906020019080838360005b83811015610cb5578082015181840152602081019050610c9a565b50505050905090810190601f168015610ce25780820380516001836020036101000a031916815260200191505b509550505050505060405180910390a35b505050565b6000600160008473ffffffffffffffffffffffffffffffffffffffff1673ffffffffffffffffffffffffffffffffffffffff168152602001908152602001600020826040518082805190602001908083835b602083101515610d6f5780518252602082019150602081019050602083039250610d4a565b6001836020036101000a038019825116818451168082178552505050505050905001915050908152602001604051809103902060009054906101000a900460ff1615610dbe5760019050610dc3565b600090505b92915050565b606080600060146040519080825280601f01601f191660200182016040528015610e025781602001602082028038833980820191505090505b509150600090505b6014811015610eab578060130360080260020a8473ffffffffffffffffffffffffffffffffffffffff16811515610e3d57fe5b047f0100000000000000000000000000000000000000000000000000000000000000028282815181101515610e6e57fe5b9060200101907effffffffffffffffffffffffffffffffffffffffffffffffffffffffffffff1916908160001a9053508080600101915050610e0a565b8192505050919050565b6060806000836040518082805190602001908083835b602083101515610ef05780518252602082019150602081019050602083039250610ecb565b6001836020036101000a03801982511681845116808217855250505050505090500191505090815260200160405180910390206000016000846040518082805190602001908083835b602083101515610f5e5780518252602082019150602081019050602083039250610f39565b6001836020036101000a0380198251168184511680821785525050505050509050019150509081526020016040518091039020600101818054600181600116156101000203166002900480601f0160208091040260200160405190810160405280929190818152602001828054600181600116156101000203166002900480156110295780601f10610ffe57610100808354040283529160200191611029565b820191906000526020600020905b81548152906001019060200180831161100c57829003601f168201915b50505050509150808054600181600116156101000203166002900480601f0160208091040260200160405190810160405280929190818152602001828054600181600116156101000203166002900480156110c55780601f1061109a576101008083540402835291602001916110c5565b820191906000526020600020905b8154815290600101906020018083116110a857829003601f168201915b5050505050905091509150915091565b60606040805190810160405280601081526020017f48656c6c6f2066726f6d20476f6f647300000000000000000000000000000000815250905090565b6000826040518082805190602001908083835b60208310151561114a5780518252602082019150602081019050602083039250611125565b6001836020036101000a038019825116818451168082178552505050505050905001915050908152602001604051809103902060020160009054906101000a900460ff16156112c7577fd25d1649092d9c10a66dbb21b446c5e442d0e906a795a5044494a68d810682153383604051808373ffffffffffffffffffffffffffffffffffffffff1673ffffffffffffffffffffffffffffffffffffffff1681526020018060200180602001838103835284818151815260200191508051906020019080838360005b8381101561122c578082015181840152602081019050611211565b50505050905090810190601f1680156112595780820380516001836020036101000a031916815260200191505b50838103825260258152602001807f426174636820776974682074686973205555494420616c72656164792063726581526020017f617465642e00000000000000000000000000000000000000000000000000000081525060400194505050505060405180910390a16116a2565b606060405190810160405280848152602001828152602001600115158152506000836040518082805190602001908083835b60208310151561131e57805182526020820191506020810190506020830392506112f9565b6001836020036101000a0380198251168184511680821785525050505050509050019150509081526020016040518091039020600082015181600001908051906020019061136d929190611878565b50602082015181600101908051906020019061138a929190611878565b5060408201518160020160006101000a81548160ff02191690831515021790555090505060018060003373ffffffffffffffffffffffffffffffffffffffff1673ffffffffffffffffffffffffffffffffffffffff168152602001908152602001600020836040518082805190602001908083835b60208310151561142457805182526020820191506020810190506020830392506113ff565b6001836020036101000a038019825116818451168082178552505050505050905001915050908152602001604051809103902060006101000a81548160ff0219169083151502179055507f8657843818dcdc19d419ccc3f96e07dff9ceefb422728fc8459b0e69bdd0e615338383604051808473ffffffffffffffffffffffffffffffffffffffff1673ffffffffffffffffffffffffffffffffffffffff1681526020018060200180602001838103835285818151815260200191508051906020019080838360005b838110156115085780820151818401526020810190506114ed565b50505050905090810190601f1680156115355780820380516001836020036101000a031916815260200191505b50838103825284818151815260200191508051906020019080838360005b8381101561156e578082015181840152602081019050611553565b50505050905090810190601f16801561159b5780820380516001836020036101000a031916815260200191505b509550505050505060405180910390a13373ffffffffffffffffffffffffffffffffffffffff1660017f3cc1980eb5f0d359d6565d65710fe6d9d0ea58113d1d830053109ab2baa133b58442604051808060200180602001848152602001838103835285818151815260200191508051906020019080838360005b83811015611631578082015181840152602081019050611616565b50505050905090810190601f16801561165e5780820380516001836020036101000a031916815260200191505b508381038252601a8152602001807f4261746368207375636365737366756c6c79206372656174656400000000000081525060200194505050505060405180910390a35b505050565b606080606080606060008088955087945084518651016040519080825280601f01601f1916602001820160405280156116ef5781602001602082028038833980820191505090505b50935083925060009150600090505b85518110156117b157858181518110151561171557fe5b9060200101517f010000000000000000000000000000000000000000000000000000000000000090047f010000000000000000000000000000000000000000000000000000000000000002838380600101945081518110151561177457fe5b9060200101907effffffffffffffffffffffffffffffffffffffffffffffffffffffffffffff1916908160001a90535080806001019150506116fe565b600090505b84518110156118695784818151811015156117cd57fe5b9060200101517f010000000000000000000000000000000000000000000000000000000000000090047f010000000000000000000000000000000000000000000000000000000000000002838380600101945081518110151561182c57fe5b9060200101907effffffffffffffffffffffffffffffffffffffffffffffffffffffffffffff1916908160001a90535080806001019150506117b6565b82965050505050505092915050565b828054600181600116156101000203166002900490600052602060002090601f016020900481019282601f106118b957805160ff19168380011785556118e7565b828001600101855582156118e7579182015b828111156118e65782518255916020019190600101906118cb565b5b5090506118f491906118f8565b5090565b61191a91905b808211156119165760008160009055506001016118fe565b5090565b905600a165627a7a723058201b816775123a726b90416d2b83e56fb0fe27e94599e26ee1ee957d3c962436700029",
  "source": "pragma solidity ^0.4.17;\n\ncontract Goods {\n    \n    function getHello() public returns(string) {\n\t\treturn \"Hello from Goods\";\n\t}\n    event BatchLog (uint indexed eventDesc, string batchId, string content, address indexed doer, uint timestamp);\n    event BatchCreate(address sender, string uuid, string manufacturer);\n    event BatchCreateError(address sender, string uuid, string message);\n    event BatchTransfer(address sender, address receiver, string uuid);\n    event BatchTransferError(address sender, address receiver, string uuid, string message);\n\n    struct Batch {\n        string name;\n        string manufacturerName;\n        bool readyToShip; \n    }\n\n    mapping(string  => Batch) private batchStore;\n\n    mapping(address => mapping(string => bool)) private batchCurrentOwner;\n\n    function createBatch(string name, string uuid, string manufacturerName) {\n    if(batchStore[uuid].readyToShip) {\n            emit BatchCreateError(msg.sender, uuid, \"Batch with this UUID already created.\");\n            return;\n        }\n        batchStore[uuid] = Batch(name, manufacturerName, true);\n        batchCurrentOwner[msg.sender][uuid] = true;\n        emit BatchCreate(msg.sender, uuid, manufacturerName);\n        emit BatchLog(1, uuid, \"Batch successfully created\", msg.sender, now);//BATCH_CREATED\n    }\n\n    function getBatchById(string uuid) constant returns (string, string) {\n        return (batchStore[uuid].name, batchStore[uuid].manufacturerName);\n    }\n\n    function transferBatch(address to, string uuid) {\n        if(!batchStore[uuid].readyToShip) {\n            emit BatchTransferError(msg.sender, to, uuid, \"No batch with this UUID exists\");\n            return;\n        }\n        if(!batchCurrentOwner[msg.sender][uuid]) {\n            emit BatchTransferError(msg.sender, to, uuid, \"Sender does not own this batch.\");\n            return;\n        }\n        batchCurrentOwner[msg.sender][uuid] = false;\n        batchCurrentOwner[to][uuid] = true;\n        emit BatchTransfer(msg.sender, to, uuid);\n         string memory content = strConcat(\"Batch transferred to: \", toString(to));\n        emit BatchLog(2, uuid, content, msg.sender, now);//BATCH_TRANSFERRED\n    }\n\n    // Public address of owner\n    function isCurrentOwnerOf(address owner, string uuid) constant returns (bool) {\n        if(batchCurrentOwner[owner][uuid]) {\n            return true;\n        }\n        return false;\n    }\n\n    function strConcat(string _a, string _b) internal pure returns (string){\n        bytes memory _ba = bytes(_a);\n        bytes memory _bb = bytes(_b);\n        string memory ab = new string(_ba.length + _bb.length);\n        bytes memory bab = bytes(ab);\n        uint k = 0;\n        for (uint i = 0; i < _ba.length; i++) bab[k++] = _ba[i];\n        for (i = 0; i < _bb.length; i++) bab[k++] = _bb[i];\n        return string(bab);\n    }\n\n    function toString(address x) returns (string) {\n    bytes memory b = new bytes(20);\n    for (uint i = 0; i < 20; i++)\n        b[i] = byte(uint8(uint(x) / (2**(8*(19 - i)))));\n    return string(b);\n    }\n}",
  "sourcePath": "/Users/srimathih/blockchain_101/dapp/contracts/Goods.sol",
  "compiler": {
    "name": "solc",
    "version": "0.4.24+commit.e67f0147.Emscripten.clang"
  },
  "schemaVersion": "2.0.0",
  "updatedAt": "2018-12-09T07:04:26.285Z"
}